
:10000000787F760018B800FA75F0007581807587E2
:1000100080758922758DFD759852D28EC2AC750897
:1000200004750911750A017510067515797518247E
:10003000C2A0D2B0C2A37440120ECD90150D120E04
:1000400075901517120E75901521120E7590152BBF
:10005000120E75901535120E7590153F120E759093
:100060001503120E75901549120E757401120ECDFE
:10007000120FE07438120ECD740C120ECD741012E3
:100080000ECD7407120ECD7480120ECD9012BE12DA
:100090000EA374C0120ECD9012D3120EA3740612CA
:1000A0000ECD20B2691210117401120ECD120FE0A4
:1000B0007480120ECD901480120E7574C0120ECD85
:1000C0009014C2120E75740D120ECDC296C29720F6
:1000D000B3031210383097F774C0120ECD9014D7B6
:1000E000120E75780174007F083097FDA29533D207
:1000F000962097FDC296DFF1F912114008B880E50D
:1001000074C0120ECD901496120E7512101120B4F8
:100110004320B5401210117401120ECD120FE0747D
:1001200080120ECD9014AC120E7574C0120ECD90CC
:1001300014C2120E75740D120ECDC296C29720B362
:10014000031210383097F774C0120ECD9014D712E6
:100150000E7580FE120FCF120FCF120FCF120FCFDE
:10016000120FCF120FCFC2B6C2B77401120ECD124A
:100170000FE01210227480120ECD9012E8120E754C
:10018000740D120ECD901296120FA2120FE0901263
:100190009C120FA2120FE09012A2120FA2120FE0F7
:1001A0009012A8120FA2120FE09012B0120FA2121A
:1001B0000FE0C29874C0120ECD901792120E757493
:1001C000C0120ECD901290120FA2743E120EDC12CD
:1001D0000FC2B43403020200B40DF174C1120ECD8B
:1001E0000201E6120EDC120FC2B40DF7120FCF128D
:1001F0000FCF120FCF120FCF120FCF120FCF80B22F
:10020000120FC2B43EFA740C120ECD780012119087
:100210002014288910E51020E002D2A378011211E1
:1002200090890878021211908909A8081211908902
:1002300016A8091211908917020261E510C2E4F5AF
:100240001074C0120ECD9017EA120E751210111212
:100250000FCF120FCF120FCF120FCF120FCF120FDF
:10026000CF120C81120D7B740D120FBA20B308123D
:100270001038740D120FBA30B25520985420B4269D
:100280001210220508E508120931F508A808121114
:10029000908916120C81120FE0120FE0120FE07419
:1002A0000D120FBA80C620B5C31210220509E50948
:1002B000120931F509A8091211908917120D7B1244
:1002C0000FE0120FE0120FE0740D120FBA809D6163
:1002D0006B120FADE50AB40148120EEBAA08120921
:1002E0005B1210477480250B120ECDA90F7820E603
:1002F000120EDC08D9F9750A027430120FBA743183
:10030000120FBAE509C4540FF9120F92120FBAE591
:1003100009540FF9120F92120FBA740D120FBA414D
:100320007D120EEBAA0912095B12108374C0250C12
:10033000120ECDA90F7820E6120EDC08D9F9750A45
:10034000017430120FBA7431120FBAE508C4540F99
:10035000F9120F92120FBAE508540FF9120F921208
:100360000FBA740D120FBA417DE1DBC2B6C2B712EB
:1003700010117C0A7D647F037E9820B2ECDEFBDFE7
:10038000F7DDF3DCEF7480120ECD9012FE120E75C5
:1003900074C0120ECD9013C2120E7520B30312104A
:1003A0003820B502C12020B4F21210227401120EBE
:1003B000CD120FE07480120ECD901314120E7574CE
:1003C000C0120ECD90146A120E7574C0120ECDE5D7
:1003D0001030E014744F120EDC744E120EDC7420D8
:1003E000120EDCC2A30203F9744F120EDC74461223
:1003F0000EDC7446120EDCD2A3120FCF20B3031210
:10040000103830B40E20B5F4121022E510B2E0F529
:100410001080B71210227401120ECD120FE07480FA
:10042000120ECD90132A120E7574C0120ECD9014B8
:100430006A120E7574C0120ECDE51030E112744FC1
:10044000120EDC744E120EDC7420120EDC02045FFD
:10045000744F120EDC7446120EDC7446120EDC125F
:100460000FCF20B30312103830B40E20B5F41210A1
:1004700022E510B2E1F51080BB1210227401120EB9
:10048000CD120FE074C0120ECD90133F120E7512F4
:100490000C81120FCF20B30312103830B41120B5E5
:1004A000F41210220508E508120931F50880E078F9
:1004B00001A9081211401210227401120ECD120F60
:1004C000E07480120ECD901355120E75120D7B1232
:1004D0000FCF20B30312103830B41120B5F412102E
:1004E000220509E509120931F50980E07802A90918
:1004F0001211401210227401120ECD120FE07480FE
:10050000120ECD90136B120E7574C0120ECD901496
:100510006A120E7574C0120ECDE51030E312744FDE
:10052000120EDC744E120EDC7420120EDC02053F3B
:10053000744F120EDC7446120EDC7446120EDC127E
:100540000FCF20B30312103830B40E20B5F41210C0
:1005500022E510B2E3F51080BB1210227401120ED6
:10056000CD120FE07480120ECD901381120E7574AF
:10057000C0120ECD90146A120E7574C0120ECDE525
:100580001030E412744F120EDC744E120EDC742024
:10059000120EDC0205A5744F120EDC7446120EDC3E
:1005A0007446120EDC120FCF20B30312103830B491
:1005B0000E20B5F4121022E510B2E4F51080BB1243
:1005C00010227401120ECD120FE07480120ECD9025
:1005D0001396120E7574C0120ECD9013AC120E75D8
:1005E000120FCF20B30312103820B4F712102212CA
:1005F0000FCFA9107800121140201402416174C07D
:10060000120ECD901800120E75121011120FCF128B
:100610000FCF120FCF120FCF120FCF120FCF41619A
:100620001210227401120ECD120FE07480120ECD42
:100630009013D8120E75120FCF20B303121038206A
:10064000B4F71210227401120ECD120FE074801252
:100650000ECD9013EE120E75C298901446120FA292
:10066000120FAD120EEBE50D60049480F50D9000B5
:1006700000850D82120FF17491120ECDEBC4540F50
:100680002430120EDCEB540F2430120EDC74C01236
:100690000ECDE50D701A901404120E75120FCF20B6
:1006A000B30312103820B4F7121022120FCF416199
:1006B000D2B690141A120E75121011120FCF20B369
:1006C0000312103820B5F712102274C0120ECD900C
:1006D0001450120E7590144C120FA2120FADF67832
:1006E0001908B634FC08B633F8E82404F87513008A
:1006F00074C0120ECD08B63E0302077808B63E035A
:1007000002077818B6200280ECB60D0280E7B63AF0
:100710000280E208B63A0280DC18B6300808B6302B
:1007200003020778188811900000051385138212C0
:100730000FF1EB54F0C4120F92120EDCEB540F12B7
:100740000F92120EDC742D120EDCA811121210E999
:10075000120EDCEA120EDC08E6120EDC0808E612C5
:100760000EDC08E6120EDC120FCF20B30312103895
:1007700020B5F7121022C1F074C0120ECD901430C3
:10078000120E7575130074CF120ECDE51330E01202
:100790007459120EDC7445120EDC7453120EDC0216
:1007A00007B1744E120EDC744F120EDC7420120E60
:1007B000DC120FCF20B30312103830B40E20B5F482
:1007C000121022E513B2E0F51380BBE51330E0060A
:1007D000901466120FA2120FCF41617401120ECD58
:1007E000120FE07480120ECD9017A8120E7574C00F
:1007F000120ECDE51020E2099017BE120E75020808
:10080000079017D4120E759014ED120FA2120FADAF
:10081000120EEB850D11120A827480120ECDA90FF3
:100820007820E6120EDC08D9F99014F3120FA21208
:100830000FAD120EEB850D12850E13120B70748B1B
:10084000120ECDA90F7820E6120EDC08D9F9A912F4
:10085000A8137B007A0A1210BF891288137900A8A6
:10086000117B017A131210F5AB12AA131210BF8973
:10087000838882E51030E24F0515A815A68308A6E7
:10088000828815E515B4FF6C78807981868387822C
:100890007882E6FB08E6FAA983A882751183121113
:1008A00034898388820511A811E6FB08E6FA8811CD
:1008B000A983A882E511B4FFE57B007A401210BF3E
:1008C0008983888275157F120FF174CC120ECDEAE0
:1008D000540F600524300208DB7417120EDCEBC4E1
:1008E000540F2430120EDC742E120EDCEB540F2445
:1008F00030120EDC20B30312103820B40C12102278
:10090000E510C2E2F5100207DB20B50C121022E55B
:1009100010D2E2F5100207DB20B213121022780089
:10092000A910121140120FCF120FCF02026102085C
:1009300007B40803740A22B41203741422B4160311
:10094000742C22B43003743322B43403743C22B4C4
:100950003E03744222B44702740422BA0404120A09
:100960001122BA0504120A5322BA0604120ABA2244
:10097000BA0704120ABA22BA0A04120A8222BA0B6D
:1009800004120A8222BA0C04120AF822BA0D0412C6
:100990000A8222BA0E04120B3A22BA0F04120A5328
:1009A00022BA1004120B7022BA1104120A1122BAD0
:1009B0001404120C4D22BA1504120C4D22BA2C0448
:1009C000120A1122BA2D04120A1122BA2E04120A96
:1009D0001122BA2F04120A1122BA3304120A8222F7
:1009E000BA3C04120BB122BA3D04120BB122BA4236
:1009F00004120BE722BA4304120A1122BA44041269
:100A00000C1B22BA4504120A1122BA4603120A53D9
:100A100022E50D75F064A4900000F582120FF1EA52
:100A200090000085F08225F0900000F582120FF111
:100A3000EA540FFC60072430F520020A40752017A5
:100A4000EBC4540F2430F521EB540F2430F52275FC
:100A50000F0322900000E50DC39428F582120FF1D8
:100A6000EA540F60072430F520020A6F752017EB57
:100A7000C4540F2430F521EB540F2430F522750FA8
:100A80000322900000850D82120FF1EA540F6007D7
:100A90002430F520020A9A752017EBC4540FAF20BA
:100AA000BF170260072430F521020AAF752117EB4A
:100AB000540F2430F522750F0322E50D75F064A460
:100AC000A9F0F87B007A801210BFC3E89464400755
:100AD00075202B020ADD75202DFC74649C900000AB
:100AE000F582120FF1EBC4540F2430F521EB540FB3
:100AF0002430F522750F0322E50D75F00484F5838B
:100B00007440A4FCE50E75F004842CF582120FF1FC
:100B1000EAC4540F60072430F520020B207520171B
:100B2000EA540F2430F521EBC4540F2430F522EBA6
:100B3000540F2430F523750F0422E50D75F002845F
:100B4000C39440400775202B020B5475202DFC7474
:100B5000FF9C2402900000F582FC120FF1EBC454BC
:100B60000F2430F521EB540F2430F522750F0322AA
:100B7000850D83850E82120FF1E960072430F52080
:100B8000020B86752017EAC4540FAF20BF1702600E
:100B9000072430F521020B9B752117EA540F2430EE
:100BA000F522EBC4540F2430F52475232E750F0560
:100BB00022850D83850E82120FF1EAC4540F60075F
:100BC0002430F520020BCA752017EA540F2430F5A3
:100BD00021EBC4540F2430F522EB540F2430F524BC
:100BE00075232E750F0522850D83850E82120FF158
:100BF000E960072430F520020BFD752017EAC45484
:100C00000F2430F521EA540F2430F523EBC4540FA0
:100C10002430F52475222E750F0522E50D75F0643C
:100C2000A4A9F0F87B007A801210BF898388821211
:100C30000FF1EA2430F52075212EEBC4540F243037
:100C4000F522EB540F2430F523750F0422E50D75C2
:100C5000F064A4A9F0F87B007AC81210BF898388D9
:100C600082120FF1EA540F2430F52075212EEBC4C7
:100C7000540F2430F522EB540F2430F523750F0464
:100C8000227480120ECDE508B40406901553020DAF
:100C900075B40506901569020D75B4060690157FAA
:100CA000020D75B40706901595020D75B40A0690ED
:100CB00015AB020D75B40B069015C1020D75B40C81
:100CC000069015D7020D75B40D069015ED020D7541
:100CD000B40E06901603020D75B40F069016190295
:100CE0000D75B4100690162F020D75B411069016EE
:100CF00045020D75B4140690165C020D75B4150608
:100D0000901672020D75B42C06901688020D75B4FB
:100D10002D0690169E020D75B42E069016B4020D87
:100D200075B42F069016CA020D75B433069016E0FE
:100D3000020D75B43C069016F6020D75B43D069092
:100D4000170C020D75B44206901722020D75B443BC
:100D500006901738020D75B4440690174E020D75B3
:100D6000B44506901766020D75B4460690177C02CE
:100D70000D75901792120E75890B2274C0120ECD4C
:100D8000E509B40406901553020E6FB405069015DC
:100D900069020E6FB4060690157F020E6FB4070647
:100DA000901595020E6FB40A069015AB020E6FB443
:100DB0000B069015C1020E6FB40C069015D7020EEB
:100DC0006FB40D069015ED020E6FB40E069016036B
:100DD000020E6FB40F06901619020E6FB410069033
:100DE000162F020E6FB41106901645020E6FB41442
:100DF0000690165C020E6FB41506901672020E6F06
:100E0000B42C06901688020E6FB42D0690169E0222
:100E10000E6FB42E069016B4020E6FB42F06901605
:100E2000CA020E6FB433069016E0020E6FB43C0691
:100E30009016F6020E6FB43D0690170C020E6FB4BA
:100E40004206901722020E6FB44306901738020E26
:100E50006FB4440690174E020E6FB44506901766A5
:100E6000020E6FB4460690177C020E6F9017921216
:100E70000E75890C227820E493F6B40D03020E84DB
:100E8000A30880F308760DA3E493F97820E6B40D67
:100E90000122D2A200D2A100F58000C2A2120FCA84
:100EA0000880EA7820E493F6B40D03020EB2A3089A
:100EB00080F308760D7820E6B40D0122D2A200D28C
:100EC000A100F58000C2A2120FE00880EAD2A200C1
:100ED000C2A100F58000C2A2120FE022D2A200D26D
:100EE000A100F58000C2A2120FCA22E520B4342668
:100EF0007518247826E6120F83C4F50D08E6120F44
:100F000083790DD77829E6120F83C4F50E08E6120F
:100F10000F83790ED722D51843E51030E43E121026
:100F2000117401D1CD120FE07480D1CD901816D17B
:100F30007574C0D1CD90182CD175120FCF1210221C
:100F4000120FCF121022120FCF121022120FCF74D5
:100F500008D1CDC2B6C2B7D2A3020F63750D00751A
:100F60000E0022901290120FA2120FC2B4340990F8
:100F700012B8120FA212120975110A120FCFD51151
:100F8000FA80E075F04184B40104E6943722E694D7
:100F90002F22FF75F00A84B40104EF243722EF24D6
:100FA0003022E493700122A3120FBA80F578201248
:100FB0000FC2B43E0122F60880F53099FDC299F5C2
:100FC00099223098FDC298E599227E1FDEFE227C90
:100FD0000A7D647F037E98DEFEDFFADDF6DCF22216
:100FE0007C027D327F037E98DEFEDFFADDF6DCF2E6
:100FF000227400F9FAFB7C10E58233F582E5833335
:10100000F5837D037803E635E0D4F618DDF8DCE8F7
:1010100022C2A47B077CFF7DFFDDFEDCFADBF6D27B
:10102000A422E51020E104120FE022C2A47B307C50
:10103000FFDCFEDBFAD2A42220A306D2A3120FCF3C
:1010400022C2A3120FCF22E51030E32CE50D851646
:10105000F084FFE508B40A0302107BB41403021005
:101060007BB4150302107BB42F0302107BB4420340
:1010700002107BEF6002D2B6C2B722EF70FAD2B68E
:10108000C2B722E51030E32CE50D8517F084FFE5AB
:1010900009B40A030210B7B414030210B7B415035D
:1010A0000210B7B42F030210B7B442030210B7EF17
:1010B0006002D2B7C2B622EF70FAD2B7C2B6227FB0
:1010C000007E0075F010C3E833F8E933F9EE33FE23
:1010D000EF33FFEEC39AF582EF9BF583B35004AF75
:1010E00083AE82EC33FCED33FDD5F0DAEDF9ECF8AC
:1010F000EFFBEEFA22C0F0C082E88AF0A4C0E0C0A4
:10110000F0E88BF0A4D00028F8E435F0F582EA8905
:10111000F0A428F8E58235F0F582E43400C0E0EB75
:1011200089F0A42582FAD0E035F0FBA900D000D0E8
:1011300082D0F02253D0E7E82AF8E93BF9A2D22284
:10114000C2A7121203D2A5D2A6C2A5121203C2A62A
:10115000D2A574A012117320140DE8547F121173DC
:10116000201404E9121173C2A5D2A6121203D2A54B
:10117000D2A722C2147A083392A51211F31211FBDE
:10118000DAF5D2A51211F330A502D2141211FB2206
:10119000D2A5D2A6C2A5121203C2A674A031732092
:1011A000142AE8547F3173201422C2A5D2A6121249
:1011B00003D2A5D2A5D2A6C2A5121203C2A674A1BB
:1011C00031732014071211D6201401F9C2A5D2A63A
:1011D000121203D2A522C2147A081211F3A2A53367
:1011E0001211FBDAF5D2A51211F320A502D21412C6
:1011F00011FB22D2A6000000000022C2A6000000BF
:1012000000002200000000002275A61E75A6E12243
:10121000B6300579507A3022B6310579507A3122CC
:10122000B6320579507A3222B6330579507A3322B4
:10123000B6340579437A3022B6350579437A3122BE
:10124000B6360579437A3222B6370579437A3322A6
:10125000B6380579427A3022B6390579427A312298
:10126000B6410579427A3222B6420579427A332272
:10127000B6430579557A3022B6440579557A31223C
:10128000B6450579557A3222B6460579557A332224
:10129000303130300D00415445300D0041544C3058
:1012A0000D00415448300D004154535430300D006E
:1012B0004154535041360D00415457530D00000125
:1012C00002204F4244494920072D4D4554455220A4
:1012D00056310D030405202D2D2D2D2D2D2D2D2DB9
:1012E0002D2D2D2D2D2D2D0D4279204A65727279CF
:1012F0002040546861694D617A6461060D00536550
:101300006C656374205345545550204D656E755B74
:101310007E5D0D00312E20536574204C43442062C5
:1013200061636B6C696768740D00322E20536574BD
:1013300020535045414B455220202020200D0033A2
:101340002E205365742073746172742D7570205053
:101350004944310D00342E2053657420737461723A
:10136000742D757020504944320D00352E2050499F
:1013700044205761726E696E67204C696768740D0E
:1013800000362E204175746F20536C656570204DBA
:101390006F64652E0D00372E204669726D7761727D
:1013A000652056657220312E30340D0030312D4DC0
:1013B00061792D3230303720207C204A61766120DF
:1013C0000D005370656369616C2046756E637469C6
:1013D0006F6E205B7E5D0D00312E205665682049C2
:1013E0006E666F204E756D626572733A0D00322E17
:1013F000204E6F2E206F662044544373203D202DD5
:101400002D200D104D494C20737461747573206943
:1014100073204F46462E2E2E0D005072657373209A
:10142000746F2072656164204454435B7E5D0D00DF
:10143000436C656172204D494C206E6F773F5B4E67
:101440004F205D7E0D00303130310D0030330D0006
:101450002020202020202020206E657874204454F5
:10146000435B7E5D0D0030340D0020202020205095
:101470007265737320746F207365745B7E5D0D00FD
:101480005B534554204C494D4954544544205641E2
:101490004C55455D0D0053657474696E6720636F2C
:1014A0006D706C657465212E2E2E0D005B205550DD
:1014B0004752414445204649524D57415245205DCF
:1014C0000D0057616974696E6720636F6E6E6563A6
:1014D00074696F6E2E0D004E6F77205570677261C4
:1014E00064696E672E2E2E202020200D00303130B2
:1014F000440D00303131300D0000001E151515155A
:10150000000D00000E010E01031E000D0000000181
:1015100006080C1B100D0000001F000000110A0D32
:10152000000000100C02061B010D001010080E0335
:101530000000000D0004040000111F00000D000158
:1015400001020E180000000D00111B0E04040E1BFA
:10155000110D0043414C20456E67696E65204C6F4C
:101560006164202D2D2D250D10436F6F6C616E74FD
:101570002054656D703A202D2D2D20DF630D0E5304
:101580002D54204675656C205472696D31202D2DC7
:101590002D20250D0F4C2D54204675656C2054725E
:1015A000696D31202D2D2D20250D0F4675656C2080
:1015B0005072657373757265202D2D2D6B50610D02
:1015C0000E4D414E20416972205072657373202D7B
:1015D0002D2D6B50610D0E454E472053706565648F
:1015E0003A202D2D2D2D2052504D200D0B564548C3
:1015F0002053706565643A202D2D2D206B6D2F686A
:10160000200D0B49474E204144562054696D696EA8
:10161000673A202D2D2DDF0D10496E74616B65200A
:101620004169722054656D70202D2DDF630D0F41CF
:10163000697220466C6F77202D2D2D2E2D20672F5F
:101640007365630D095468726F74746C6520506F14
:10165000733A202D2D2D202520200D0E46726F6E01
:101660007420484F325320566F6C74202D2E2D2D30
:101670000D10526561722020484F325320566F6C16
:1016800074202D2E2D2D0D10436F6D6D616E6465D0
:1016900064204547523A202D2D2D20250D0F45471A
:1016A00052204572726F723A202D2D2D2025202058
:1016B00020200D0B434D44204576617020507572FB
:1016C0006765202D2D2D20250D0F4675656C204C4E
:1016D0006576656C3A202D2D2D20252020200D0CBF
:1016E0004261726F205072657373757265202D2D83
:1016F0002D6B50610D0E43415420312054656D70A7
:101700003A202D2D2D2E2D20DF630D0C434154202A
:10171000322054656D703A202D2D2D2E2D20DF6343
:101720000D0C50434D20566F6C746167653A202D47
:101730002D2E2D2D20560D0D41425320456E6769EB
:101740006E65204C6F6164202D2D2D250D10434DAD
:10175000442045515620526174696F3A202D2E2D38
:101760002D2020200D0F52454C205468726F74209C
:10177000506F733A202D2D2D20250D0F414D422005
:101780004169722054656D703A202D2D2D20DF6344
:101790000D0E20202020202020202020202020206E
:1017A0002020202020200D002D2D2D206B6D2F6856
:1017B0007C4146202D2D2E2D20672F730D00437563
:1017C0007272656E7420462F43202D2D2E2D6B6D69
:1017D0002F4C0D004176657261676520462F4320CE
:1017E0002D2D2E2D6B6D2F4C0D00454550524F4D1C
:1017F0002052656164696E67204572726F720D00D8
:10180000454550524F4D2057726974696E672045A7
:1018100072726F720D00456E67696E652069732084
:101820007475726E6564206F66660D005377697417
:10183000636820746F20534C454550206D6F64657C
:021840000D0099
:00000001FF
