:10000000787F760018B800FA75F0007581807587E2
:1000100080758922758DFD759852D28EC2AC750897
:1000200004750911750A017510067515797518247E
:10003000C2A0D2B0C2A37440120FA290161A120F1F
:100040004A901624120F4A90162E120F4A90163814
:10005000120F4A901642120F4A90164C120F4A90F5
:100060001606120F4A901610120F4A7401120FA2B0
:100070001210EB7438120FA2740C120FA27410122B
:100080000FA27407120FA27480120FA29013C21253
:100090000F7874C0120FA29013D7120F7874061243
:1000A0000FA220B26912111C7401120FA21210EBE0
:1000B0007480120FA2901585120F4A74C0120FA2FD
:1000C0009015C7120F4A740D120FA2C296C2972044
:1000D000B3031211423097F774C0120FA29015DCCF
:1000E000120F4A780174007F083097FDA29533D231
:1000F000962097FDC296DFF1F912124808B880E504
:1001000074C0120FA290159B120F4A12111C20B43A
:100110004320B54012111C7401120FA21210EB748F
:1001200080120FA29015B1120F4A74C0120FA29044
:1001300015C7120F4A740D120FA2C296C29720B3B0
:10014000031211423097F774C0120FA29015DC12FF
:100150000F4A80FE1210DA1210DA1210DA1210DAD8
:100160001210DA1210DAC2B6C2B77401120FA2125C
:1001700010EB12112D7480120FA29013EC120F4A83
:10018000740D120FA290139A1210AD1210EB90136F
:10019000A01210AD1210EB9013A61210AD1210EBBE
:1001A0009013AC1210AD1210EB9013B41210AD12EC
:1001B00010EBC29874C0120FA29018C1120F4A74AB
:1001C000C0120FA29013941210AD743E120FB11210
:1001D00010CDB43403020200B40DF174C1120FA2A9
:1001E0000201E6120FB11210CDB40DF71210DA129F
:1001F00010DA1210DA1210DA1210DA1210DA80B2F3
:100200001210CDB43EFA740C120FA27800121294A0
:100210002014268910E51085E019780112129489BE
:100220000878021212948909A8081212948916A853
:1002300009121294891702025FE510C2E4F51074E6
:10024000C0120FA2901919120F4A12111C1210DAC3
:100250001210DA1210DA1210DA1210DA1210DA12A0
:100260000D32120E3E740D1210C5E51930E0092052
:10027000A704C2A38002D2A320B308121142740DB6
:100280001210C530B25520985420B42612112D05F5
:1002900008E508120953F508A808121294891612E5
:1002A0000D321210EB1210EB1210EB740D1210C580
:1002B00080B820B5B512112D0509E509120953F5CD
:1002C00009A8091212948917120E3E1210EB12108F
:1002D000EB1210EB740D1210C5808F618B1210B8E9
:1002E000E50AB40152120FC0AA0812098312114F75
:1002F0007480250B120FA2A90F7820E6120FB10807
:10030000D9F9750A02E509B42205121087418974EA
:10031000301210C574311210C5E509C4540FF9121A
:10032000109D1210C5E509540FF912109D1210C549
:10033000740D1210C54189120FC0AA091209831247
:10034000118B74C0250C120FA2A90F7820E6120F92
:10035000B108D9F9750A01E508B4220512108741E0
:100360008974301210C574311210C5E508C4540FD9
:10037000F912109D1210C5E508540FF912109D12C4
:1003800010C5740D1210C54189E1FDC2B6C2B71285
:10039000111C7C0A7D647F037E9820B2ECDEFBDFBB
:1003A000F7DDF3DCEF7480120FA2901403120F4AF2
:1003B00074C0120FA29014C7120F4A20B303121177
:1003C0004220B502C14220B4F212112D7401120F65
:1003D000A21210EB7480120FA2901419120F4A741B
:1003E000C0120FA290156F120F4A74C0120FA2E52F
:1003F0001030E014744F120FB1744E120FB174200C
:10040000120FB1C2A3020419744F120FB174461235
:100410000FB17446120FB1D2A31210DA20B3031237
:10042000114230B41020B5F412112DE510B2E0F5F0
:1004300010F51980B512112D7401120FA21210EBD4
:100440007480120FA290142F120F4A74C0120FA2C0
:1004500090156F120F4A74C0120FA2E51030E1120E
:10046000744F120FB1744E120FB17420120FB102FB
:100470000481744F120FB17446120FB17446120FFB
:10048000B11210DA20B30312114230B40E20B5F4C9
:1004900012112DE510B2E1F51080BB12112D74017F
:1004A000120FA21210EB74C0120FA2901444120F7C
:1004B0004A120D321210DA20B30312114230B41175
:1004C00020B5F412112D0508E508120953F508802E
:1004D000E07801A90812124812112D7401120FA21E
:1004E0001210EB7480120FA290145A120F4A120EBF
:1004F0003E1210DA20B30312114230B41120B5F4C9
:1005000012112D0509E509120953F50980E0780259
:10051000A90912124812112D7401120FA21210EB28
:100520007480120FA2901470120F4A74C0120FA29E
:1005300090156F120F4A74C0120FA2E51030E3122B
:10054000744F120FB1744E120FB17420120FB1021A
:100550000561744F120FB17446120FB17446120F39
:10056000B11210DA20B30312114230B40E20B5F4E8
:1005700012112DE510B2E3F51080BB12112D74019C
:10058000120FA21210EB7480120FA2901486120F99
:100590004A74C0120FA290156F120F4A74C0120F46
:1005A000A2E51030E412744F120FB1744E120FB165
:1005B0007420120FB10205C7744F120FB1744612A6
:1005C0000FB17446120FB11210DA20B303121142A8
:1005D00030B40E20B5F412112DE510B2E4F5108000
:1005E000BB12112D7401120FA21210EB7480120FA6
:1005F000A290149B120F4A74C0120FA29014B11251
:100600000F4A1210DA20B30312114220B4F712116C
:100610002D1210DAA9107800121248201402415F3E
:1006200074C0120FA290192F120F4A12111C12102F
:10063000DA1210DA1210DA1210DA1210DA1210DAF4
:10064000415F12112D7401120FA21210EB7480126F
:100650000FA29014DD120F4A1210DA20B303121108
:100660004220B4F712112D7401120FA21210EB7474
:1006700080120FA29014F3120F4AC29890154B12D9
:1006800010AD1210B8120FC0E50D60049480F50D86
:10069000900000850D821210FC7491120FA2EBC421
:1006A000540F2430120FB1EB540F2430120FB174D9
:1006B000C0120FA2E50D701A901509120F4A121000
:1006C000DA20B30312114220B4F712112D1210DAFE
:1006D000415FD2B690151F120F4A12111C1210DA88
:1006E00020B30312114220B5F712112D74C0120F5E
:1006F000A2901555120F4A9015511210AD1210B854
:10070000F6781908B634FC08B633F8E82404F8750E
:10071000130074C0120FA208B63E0302079A08B66F
:100720003E0302079A18B6200280ECB60D0280E75D
:10073000B63A0280E208B63A0280DC18B630080801
:10074000B6300302079A188811900000051385132C
:10075000821210FCEB54F0C412109D120FB1EB5436
:100760000F12109D120FB1742D120FB1A811121398
:1007700014E9120FB1EA120FB108E6120FB108081E
:10078000E6120FB108E6120FB11210DA20B303120D
:10079000114220B5F712112DE11274C0120FA29070
:1007A0001535120F4A75130074CF120FA2E51330DE
:1007B000E0127459120FB17445120FB17453120F35
:1007C000B10207D3744E120FB1744F120FB17420DF
:1007D000120FB11210DA20B30312114230B40E20FE
:1007E000B5F412112DE513B2E0F51380BBE513301B
:1007F000E00690156B1210AD1210DA415F74011211
:100800000FA21210EB7480120FA29018D7120F4A89
:1008100074C0120FA2E51020E2099018ED120F4AE1
:10082000020829901903120F4A9015F21210AD1206
:1008300010B8120FC0850D11120AB87480120FA2E1
:10084000A90F7820E6120FB108D9F99015F8121007
:10085000AD1210B8120FC0850D12850E13120BA623
:10086000748B120FA2A90F7820E6120FB108D9F9E4
:10087000A912A8137B007A0A1211C789128813796A
:1008800000A8117B017A131211FDAB12AA131211E9
:10089000C789838882E51030E24F0515A815A68325
:1008A00008A6828815E515B4FF6C78807981868367
:1008B00087827882E6FB08E6FAA983A8827511830D
:1008C00012123C898388820511A811E6FB08E6FA1A
:1008D0008811A983A882E511B4FFE57B007A401254
:1008E00011C78983888275157F1210FC74CC120F92
:1008F000A2EA540F600524300208FD7417120FB1EC
:10090000EBC4540F2430120FB1742E120FB1EB54FC
:100910000F2430120FB120B30312114220B40C1275
:10092000112DE510C2E2F5100207FD20B50C1211E1
:100930002DE510D2E2F5100207FD20B21312112DA1
:100940007800A9101212481210DA1210DA02025FAF
:10095000020829B40803740A22B41203741422B4DE
:100960001603742222B42403742C22B4300374338B
:1009700022B43403743C22B43E03744222B44702CE
:10098000740422BA0404120A4722BA0504120A891E
:1009900022BA0604120AF022BA0704120AF022BA96
:1009A0000A04120AB822BA0B04120AB822BA0C04BA
:1009B000120B2E22BA0D04120AB822BA0E04120B20
:1009C0007022BA0F04120A8922BA1004120BA6224E
:1009D000BA1104120A4722BA1404120C9B22BA1547
:1009E00004120C9B22BA2204120CCF22BA23041246
:1009F0000BA622BA2C04120A4722BA2D04120A4767
:100A000022BA2E04120A4722BA2F04120A4722BA27
:100A10003304120AB822BA3C04120BE722BA3D048E
:100A2000120BE722BA4204120C3522BA4304120A0E
:100A30004722BA4404120C6922BA4504120A47221A
:100A4000BA4603120A8922E50D75F064A4900000ED
:100A5000F5821210FCEA90000085F08225F09000EB
:100A600000F5821210FCEA540FFC60072430F520D8
:100A7000020A76752017EBC4540F2430F521EB548D
:100A80000F2430F522750F0322900000E50DC3946A
:100A900028F5821210FCEA540F60072430F520027A
:100AA0000AA5752017EBC4540F2430F521EB540F21
:100AB0002430F522750F0322900000850D8212105C
:100AC000FCEA540F60072430F520020AD075201785
:100AD000EBC4540FAF20BF170260072430F521028A
:100AE0000AE5752117EB540F2430F522750F032208
:100AF000E50D75F064A4A9F0F87B007A801211C7A7
:100B0000C3E89464400775202B020B1375202DFC5D
:100B100074649C900000F5821210FCEBC4540F2406
:100B200030F521EB540F2430F522750F0322E50D2B
:100B300075F00484F5837440A4FCE50E75F004841C
:100B40002CF5821210FCEAC4540F60072430F52003
:100B5000020B56752017EA540F2430F521EBC454CC
:100B60000F2430F522EB540F2430F523750F0422A7
:100B7000E50D75F00284C39440400775202B020BED
:100B80008A75202DFC74FF9C2402900000F582FCE5
:100B90001210FCEBC4540F2430F521EB540F243019
:100BA000F522750F0322850D83850E821210FCE954
:100BB00060072430F520020BBC752017EAC4540FDF
:100BC000AF20BF170260072430F521020BD1752139
:100BD00017EA540F2430F522EBC4540F2430F524C7
:100BE00075232E750F0522850D83850E821210FC4C
:100BF000EA75F01084AAF075F00AA42A940475F03E
:100C00000A84AAF075F010A42AC4540F6007243097
:100C1000F520020C18752017EA540F2430F521EB4B
:100C2000C4540F2430F522EB540F2430F5247523DF
:100C30002E750F0522850D83850E821210FCE9604A
:100C4000072430F520020C4B752017EAC4540F24FA
:100C500030F521EA540F2430F523EBC4540F24302F
:100C6000F52475222E750F0522E50D75F064A4A9F3
:100C7000F0F87B007A801211C7898388821210FCF9
:100C8000EA2430F52075212EEBC4540F2430F522D0
:100C9000EB540F2430F523750F0422E50D75F06435
:100CA000A4A9F0F87B007AC81211C7898388821240
:100CB00010FCEA540F2430F52075212EEBC4540F9C
:100CC0002430F522EB540F2430F523750F0422E570
:100CD0000D9401F9A80E7B007A641211FD8A0D7B38
:100CE000007A901211C789118812E50DC4F97800B5
:100CF0007B007A091211C7AB11AA1212123C898328
:100D000088821210FCEAC4540F60072430F52002D8
:100D10000D15752017EA540F2430F521EBC4540F3C
:100D20002430F522EB540F2430F52475232E750F53
:100D300005227480120FA2E508B40406901656022C
:100D40000E38B4050690166C020E38B406069016DE
:100D500082020E38B40706901698020E38B40A06BE
:100D60009016AE020E38B40B069016C4020E38B4BC
:100D70000C069016DA020E38B40D069016F0020E2C
:100D800038B40E06901706020E38B40F0690171CE2
:100D9000020E38B41006901732020E38B4110690C5
:100DA0001748020E38B4140690175F020E38B415B7
:100DB00006901775020E38B422069018AB020E3852
:100DC000B4230690178B020E38B42C069017A1029C
:100DD0000E38B42D069017B7020E38B42E069017B1
:100DE000CD020E38B42F069017E3020E38B4330646
:100DF0009017F9020E38B43C0690180F020E38B462
:100E00003D06901825020E38B4420690183B020E9B
:100E100038B44306901851020E38B444069018674F
:100E2000020E38B4450690187F020E38B44606907C
:100E30001895020E389018C1120F4A890B2274C0FF
:100E4000120FA2E509B40406901656020F44B40529
:100E50000690166C020F44B40606901682020F44E8
:100E6000B40706901698020F44B40A069016AE0214
:100E70000F44B40B069016C4020F44B40C0690162F
:100E8000DA020F44B40D069016F0020F44B40E06B9
:100E9000901706020F44B40F0690171C020F44B4BB
:100EA0001006901732020F44B41106901748020F33
:100EB00044B4140690175F020F44B41506901775DA
:100EC000020F44B422069018AB020F44B4230690DC
:100ED000178B020F44B42C069017A1020F44B42DB7
:100EE000069017B7020F44B42E069017CD020F4498
:100EF000B42F069017E3020F44B433069017F9029B
:100F00000F44B43C0690180F020F44B43D069018ED
:100F100025020F44B4420690183B020F44B4430626
:100F2000901851020F44B44406901867020F44B45D
:100F3000450690187F020F44B44606901895020F9C
:100F4000449018C1120F4A890C227820E493F6B419
:100F50000D03020F59A30880F308760DA3E493F95B
:100F60007820E6B40D0122D2A200D2A100F58000C3
:100F7000C2A21210D50880EA7820E493F6B40D03DB
:100F8000020F87A30880F308760D7820E6B40D01E0
:100F900022D2A200D2A100F58000C2A21210EB085A
:100FA00080EAD2A200C2A100F58000C2A21210EB1A
:100FB00022D2A200D2A100F58000C2A21210D52236
:100FC000E520B434267518247826E612108EC4F570
:100FD0000D08E612108E790DD77829E612108EC40E
:100FE000F50E08E612108E790ED722B43626751843
:100FF000247829E612108EC4F50D08E612108E79B9
:101000000DD7782CE612108EC4F50E08E612108E5D
:10101000790ED722D51849E51030E44412111C741A
:1010200001120FA21210EB7480120FA29019451238
:101030000F4A74C0120FA290195B120F4A1210DAF5
:1010400012112D1210DA12112D1210DA12112D12A6
:1010500010DA7408120FA2C2B6C2B7D2A302106788
:10106000750D00750E00229013941210AD1210CD64
:10107000B434099013BC1210AD12130D75110A127D
:1010800010DAD511FA80E09015FE1210AD2275F03D
:101090004184B40104E6943722E6942F22FF75F0D0
:1010A0000A84B40104EF243722EF243022E4937041
:1010B0000122A31210C580F578201210CDB43E0194
:1010C00022F60880F53099FDC299F599223098FDF5
:1010D000C298E599227E1FDEFE227C0A7D647F0392
:1010E0007E98DEFEDFFADDF6DCF2227C027D327FC6
:1010F000037E98DEFEDFFADDF6DCF2227400F9FAF8
:10110000FB7C10E58233F582E58333F5837D03783C
:1011100003E635E0D4F618DDF8DCE822C2A47B074C
:101120007CFF7DFFDDFEDCFADBF6D2A422E5102099
:10113000E10311EB22C2A47B307CFFDCFEDBFAD2A0
:10114000A42220A305D2A311DA22C2A311DA22E538
:101150001030E32CE50D8516F084FFE508B40A0392
:10116000021183B41403021183B41503021183B472
:101170002F03021183B44203021183EF6002D2B63F
:10118000C2B722EF70FAD2B6C2B722E51030E32C14
:10119000E50D8517F084FFE509B40A030211BFB419
:1011A00014030211BFB415030211BFB42F030211BF
:1011B000BFB442030211BFEF6002D2B7C2B622EF42
:1011C00070FAD2B7C2B6227F007E0075F010C3E875
:1011D00033F8E933F9EE33FEEF33FFEEC39AF582CD
:1011E000EF9BF583B35004AF83AE82EC33FCED3359
:1011F000FDD5F0DAEDF9ECF8EFFBEEFA22C0F0C025
:1012000082E88AF0A4C0E0C0F0E88BF0A4D0002807
:10121000F8E435F0F582EA89F0A428F8E58235F0A3
:10122000F582E43400C0E0EB89F0A42582FAD0E036
:1012300035F0FBA900D000D082D0F02253D0E7E8EF
:101240002AF8E93BF9A2D222121307D2A5D2A6C2EC
:10125000A5121307C2A6D2A574A012127720140DEE
:10126000E8547F121277201404E9121277C2A5D233
:10127000A6121307D2A522C2147A083392A512121D
:10128000F71212FFDAF5D2A51212F730A502D21426
:101290001212FF22D2A5D2A6C2A5121307C2A674AB
:1012A000A0517720142AE8547F5177201422C2A538
:1012B000D2A6121307D2A5D2A5D2A6C2A512130791
:1012C000C2A674A151772014071212DA201401F972
:1012D000C2A5D2A6121307D2A522C2147A081212EE
:1012E000F7A2A5331212FFDAF5D2A51212F720A544
:1012F00002D2141212FF22D2A6000000000022C265
:10130000A600000000002200000000002275A61EBA
:1013100075A6E122B6300579507A3022B6310579CA
:10132000507A3122B6320579507A3222B6330579B5
:10133000507A3322B6340579437A3022B6350579AE
:10134000437A3122B6360579437A3222B6370579A7
:10135000437A3322B6380579427A3022B639057994
:10136000427A3122B6410579427A3222B642057973
:10137000427A3322B6430579557A3022B64405794C
:10138000557A3122B6450579557A3222B646057925
:10139000557A3322303130300D00415445300D0044
:1013A00041544C300D00415448300D0041545354C9
:1013B00030300D004154535041360D0041545753C5
:1013C0000D00000102204F4244494920582D4D454F
:1013D0005445522056310D030405202D2D2D2D2D61
:1013E0002D2D2D2D2D2D2D2D2D2D2D0D4372656186
:1013F000746564206279205261747468616E696EEC
:10140000060D0053656C6563742053455455502098
:101410004D656E755B7E5D0D00312E204175746FDC
:10142000204261636B6C696768742020200D003274
:101430002E2053657420535045414B4552202020A7
:1014400020200D00332E2053657420737461727454
:101450002D757020504944310D00342E2053657491
:101460002073746172742D757020504944320D00E0
:10147000352E20504944205761726E696E67204CAA
:10148000696768740D00362E204175746F20536CA7
:10149000656570204D6F64652E0D00372E204669FE
:1014A000726D776172652056657220312E30370D6E
:1014B0000046656232332C323031367C4A617661C7
:1014C0004A61636F620D005370656369616C204609
:1014D000756E6374696F6E205B7E5D0D00312E202A
:1014E00056656820496E666F204E756D6265727331
:1014F0003A0D00322E204E6F2E206F66204454434A
:1015000073203D202D2D200D104D494C207374610A
:10151000747573206973204F46462E2E2E0D005091
:101520007265737320746F20726561642044544344
:101530005B7E5D0D00436C656172204D494C206EF1
:101540006F773F5B4E4F205D7E0D00303130310DA7
:101550000030330D002020202020202020206E6528
:101560007874204454435B7E5D0D0030340D0020C0
:1015700020202020507265737320746F207365746F
:101580005B7E5D0D005B534554204C494D495454DE
:1015900045442056414C55455D0D005365747469B2
:1015A0006E6720636F6D706C657465212E2E2E0D35
:1015B000005B2055504752414445204649524D5703
:1015C000415245205D0D0057616974696E67206363
:1015D0006F6E6E656374696F6E2E0D004E6F7720AF
:1015E000557067726164696E672E2E2E2020202050
:1015F0000D00303130440D00303131300D003232C9
:10160000314531430D0008140803040404030D00A0
:1016100008140807050604040D0000000106080C64
:101620001B100D0000001F000000110A0D0000003B
:10163000100C02061B010D001010080E0300000024
:101640000D0004040000111F00000D000101020E36
:10165000180000000D0043414C20456E67696E651F
:10166000204C6F6164202D2D2D250D10436F6F6C64
:10167000616E742054656D703A202D2D2D20DF632E
:101680000D0E532D54204675656C205472696D31D2
:10169000202D2D2D20250D0F4C2D54204675656CC9
:1016A000205472696D31202D2D2D20250D0F46758A
:1016B000656C205072657373757265202D2D2D6BCE
:1016C00050610D0E4D414E2041697220507265737C
:1016D00073202D2D2D6B50610D0E454E47205370FC
:1016E0006565643A202D2D2D2D2052504D200D0B77
:1016F0005645482053706565643A202D2D2D206B8A
:101700006D2F68200D0B49474E20414456205469E7
:101710006D696E673A202D2D2DDF0D10496E7461B5
:101720006B65204169722054656D70202D2DDF633B
:101730000D0F41697220466C6F77202D2D2D2E2DB7
:1017400020672F7365630D095468726F74746C653C
:1017500020506F733A202D2D2D202520200D0E4670
:10176000726F6E7420484F325320566F6C74202D68
:101770002E2D2D0D10526561722020484F325320BE
:10178000566F6C74202D2E2D2D0D105261696C201A
:101790005072657373202D2D2D2E2D204D50610D0F
:1017A0000B436F6D6D616E646564204547523A204E
:1017B0002D2D2D20250D0F454752204572726F7239
:1017C0003A202D2D2D2025202020200D0B434D4487
:1017D0002045766170205075726765202D2D2D2073
:1017E000250D0F4675656C204C6576656C3A202D8D
:1017F0002D2D20252020200D0C4261726F2050726B
:10180000657373757265202D2D2D6B50610D0E4320
:10181000415420312054656D703A202D2D2D2E2DF0
:1018200020DF630D0C43415420322054656D703A23
:10183000202D2D2D2E2D20DF630D0C50434D2056D5
:101840006F6C746167653A202D2D2E2D2D20560D5D
:101850000D41425320456E67696E65204C6F61648F
:10186000202D2D2D250D10434D442045515620523D
:101870006174696F3A202D2E2D2D2020200D0F52DE
:10188000454C205468726F7420506F733A202D2D90
:101890002D20250D0F414D42204169722054656D68
:1018A000703A202D2D2D20DF630D0E5472616E7362
:1018B00020466C756964202D2D2D2E2D20DF630DA3
:1018C0000C2020202020202020202020202020202C
:1018D00020202020200D002D2D2D206B6D2F687CC9
:1018E0004146202D2D2E2D20672F730D004375723C
:1018F00072656E7420462F43202D2D2E2D6B6D2F7B
:101900004C0D004176657261676520462F43202D9E
:101910002D2E2D6B6D2F4C0D00454550524F4D20F7
:1019200052656164696E67204572726F720D004581
:101930004550524F4D2057726974696E6720457249
:10194000726F720D00456E67696E65206973207451
:1019500075726E6564206F66660D005377697463F7
:101960006820746F20534C454550206D6F64650DA1
:011970000076
:00000001FF
