
:1070000075F000758140758780758920758DFD75D7
:107010009852D28EC2AC750804750904750A0175C0
:1070200010017440127916907BC01278B8907BCA18
:107030001278B8907BD41278B8907BDE1278B89032
:107040007BE81278B8907BF21278B8907BB6127811
:10705000B8907BAC1278B8127908740112791612C4
:1070600079B17438127916740C1279167410127979
:107070001674071279167480127916907AC01278F5
:10708000E274C0127916907AD51278E274061279F9
:10709000161279A01279A01279A01279A0740112A7
:1070A00079161279B11279FC7480127916907AEA05
:1070B0001278B8740D127916907A9E12797312793B
:1070C000B1907AA41279731279B1907AAA12797375
:1070D0001279B1907AB01279731279B1907AB812AC
:1070E000797374C0127916907A98127973743E127B
:1070F000791E127993B40DF774C0127916907E0F31
:107100001278B874C0127916743E12791E127993EF
:10711000B43403027127B40DF11279A01279A012D0
:1071200079A01279A080BB127993B43EFA740C1244
:1071300079161276E81277D0740D12798B20984464
:1071400020B21F1279B11279B130B3351279FC0532
:1071500008E5081273FFF5081276E8740D12798BB2
:1071600080DB20B3D81279B11279B11279FC05090C
:10717000E5091273FFF5091277D0740D12798B802F
:10718000BC02721912797EE50AB40145127926AA69
:10719000081274237480250B127916A90F7820E643
:1071A00012791E08D9F9750A02743012798B74317C
:1071B00012798BE509C4540FF912796412798BE5C1
:1071C00009540FF912796412798B740D12798B219D
:1071D00040127926AA0912742374C0250C1279165C
:1071E000A90F7820E612791E08D9F9750A017430C2
:1071F00012798B743112798BE508C4540FF9127926
:107200006412798BE508540FF912796412798B7442
:107210000D12798B21400273351279DD7C0A7D6471
:107220007F037E9820B2EFDEFBDFF7DDF3DCEF7447
:1072300080127916907B001278B874C0127916907B
:107240007B161278B81279A01279A020B2FD1279BB
:10725000B11279B11279FC74011279161279B174F4
:1072600080127916907B2C1278B820B2FD1279B179
:107270001279B11279FC74011279161279B1748005
:10728000127916907B421278B8907B6E1279731245
:10729000797E127926E50D9480F50D600B74C0128D
:1072A0007916907B581278B8900000850D8212797B
:1072B000BE7491127916EBC4540F243012791EEB70
:1072C000540F243012791E20B2FD1279B11279B117
:1072D0001279FC74011279161279B1748012791640
:1072E000907B741278B874A8127916907B8A127801
:1072F000B874A8127916E51030E012744F12791E96
:10730000744E12791E742012791E02731C744F126F
:10731000791E744612791E744612791E30B20E2000
:10732000B3FA1279A0E510B2E0F51080C41279A08A
:107330001279A0213274011279161279B174801277
:107340007916907E251278B874C0127916907E3B1B
:107350001278B8907BA012797312797E1279268503
:107360000D1112753C7480127916A90F7820E6125F
:10737000791E08D9F9907BA612797312797E127959
:1073800026850D12850E1312761D748C127916A99E
:107390000F7820E612791E08D9F9A912A8137B00EC
:1073A0007A0A127A23891288137900A8117B017A4C
:1073B00022127A59AB12AA13127A23898388821275
:1073C00079BE74CC127916EA540F6005243002732A
:1073D000D3741712791EEBC4540F243012791E7423
:1073E0002E12791EEB540F243012791E20B20E207B
:1073F000B30B1279FC1279A01279A021326153B437
:107400000803740A22B41203742C22B430037433B8
:1074100022B43403743C22B43E03744222B44702C3
:10742000740422BA04041274CB22BA050412750D36
:1074300022BA060412756722BA070412756722BAC7
:107440000A0412753C22BA0B0412753C22BA0C04D1
:107450001275A522BA0D0412753C22BA0E041275DB
:10746000E722BA0F0412750D22BA100412761D22FB
:10747000BA11041274CB22BA2C041274CB22BA2D86
:10748000041274CB22BA2E041274CB22BA2F041227
:1074900074CB22BA330412753C22BA3C04127651E2
:1074A00022BA3D0412765122BA420412768722BAD9
:1074B00043041274CB22BA44041276BB22BA4504A8
:1074C0001274CB22BA460312750D22E50D75F064D5
:1074D000A4900000F5821279BEEA90000085F08247
:1074E00025F0900000F5821279BEEA540FFC600787
:1074F0002430F5200274FA752017EBC4540F2430A1
:10750000F521EB540F2430F522750F032290000073
:10751000E50DC39428F5821279BEEA540F60072462
:1075200030F520027529752017EBC4540F2430F56F
:1075300021EB540F2430F522750F032290000085B3
:107540000D821279BEEA540F60072430F5200275CF
:1075500054752017EBC4540F2430F521EB540F243D
:1075600030F522750F0322E50D75F064A4A9F0F83B
:107570007B007A80127A23C3E89464400775202B3D
:1075800002758A75202DFC74649C900000F58212AF
:1075900079BEEBC4540F2430F521EB540F2430F5A1
:1075A00022750F0322E50D75F00484F5837440A461
:1075B000FCE50E75F004842CF5821279BEEAC45401
:1075C0000F60072430F5200275CD752017EA540F9F
:1075D0002430F521EBC4540F2430F522EB540F2452
:1075E00030F523750F0422E50D75F00284C3944035
:1075F000400775202B02760175202DFC74FF9C241A
:1076000002900000F582FC1279BEEBC4540F2430C6
:10761000F521EB540F2430F522750F0322850D83DD
:10762000850E821279BEE960072430F52002763398
:10763000752017EAC4540F2430F521EA540F243082
:10764000F522EBC4540F2430F52475232E750F0555
:1076500022850D83850E821279BEEAC4540F60071D
:107660002430F52002766A752017EA540F2430F58D
:1076700021EBC4540F2430F522EB540F2430F524B1
:1076800075232E750F0522850D83850E821279BE16
:10769000E960072430F52002769D752017EAC4546E
:1076A0000F2430F521EA540F2430F523EBC4540F96
:1076B0002430F52475222E750F0522A90DA80E7B06
:1076C000017A47127A23898388821279BEEA2430AC
:1076D000F52075212EEB540F2430F523EBC4540F05
:1076E0002430F522750F04227480127916E508B44F
:1076F0000406907BFC0277CAB40506907C120277E0
:10770000CAB40606907C280277CAB40706907C3E6D
:107710000277CAB40A06907C540277CAB40B06906A
:107720007C6A0277CAB40C06907C800277CAB40DDA
:1077300006907C960277CAB40E06907CAC0277CA9B
:10774000B40F06907CC20277CAB41006907CD802AF
:1077500077CAB41106907CEE0277CAB42C06907DED
:10776000050277CAB42D06907D1B0277CAB42E0697
:10777000907D310277CAB42F06907D470277CAB454
:107780003306907D5D0277CAB43C06907D73027724
:10779000CAB43D06907D890277CAB44206907D9FA7
:1077A0000277CAB44306907DB50277CAB444069006
:1077B0007DCB0277CAB44506907DE30277CAB44612
:1077C00006907DF90277CA907E0F1278B8890B2255
:1077D00074C0127916E509B40406907BFC0278B2F5
:1077E000B40506907C120278B2B40606907C28029A
:1077F00078B2B40706907C3E0278B2B40A06907C58
:10780000540278B2B40B06907C6A0278B2B40C06CB
:10781000907C800278B2B40D06907C960278B2B467
:107820000E06907CAC0278B2B40F06907CC202784F
:10783000B2B41006907CD80278B2B41106907CEEF7
:107840000278B2B42C06907D050278B2B42D069071
:107850007D1B0278B2B42E06907D310278B2B42F2F
:1078600006907D470278B2B43306907D5D0278B20F
:10787000B43C06907D730278B2B43D06907D8902D7
:1078800078B2B44206907D9F0278B2B44306907DF0
:10789000B50278B2B44406907DCB0278B2B4450606
:1078A000907DE30278B2B44606907DF90278B290FA
:1078B0007E0F1278B8890C227820E493F6B40D0379
:1078C0000278C7A30880F308760DA3E493F9782023
:1078D000908002E6B40D030278E1F00812799B80F3
:1078E000F2227820E493F6B40D030278F1A3088025
:1078F000F308760D7820908002E6B40D0302790734
:10790000F0081279B180F222C2E490F000F022D2A5
:10791000E490F000F022908000F012799B22908099
:1079200002F012799B22E520B434237826E61279FE
:1079300055C4F50D08E6127955790DD77829E61268
:107940007955C4F50E08E6127955790ED722750DD2
:1079500000750E002275F04184B40104E6943722CC
:10796000E6942F2275F00A84B40104E9243722E951
:10797000243022E493700122A312798B80F57820C1
:10798000127993B43E0122F60880F53099FDC29930
:10799000F599223098FDC298E599227E0FDEFE22ED
:1079A0007C057D647F037E98DEFEDFFADDF6DCF287
:1079B000227D327F037E98DEFEDFFADDF622E4F9D7
:1079C000FAFB7C10E58233F582E58333F5837D0392
:1079D0007803E635E0D4F618DDF8DCE822790F7A92
:1079E0008FC2E690F000F031F5D2E690F000F03171
:1079F000F5DAEED9EA75F06FD5F0FD22E51020E05A
:107A00000331B12275F030C2E690F000F0127A1D19
:107A1000D2E690F000F0127A1DD5F0EB22746014DB
:107A200070FD227F007E0075F010C3E833F8E93363
:107A3000F9EE33FEEF33FFEEC39AF582EF9BF58349
:107A4000B35004AF83AE82EC33FCED33FDD5F0DAF6
:107A5000EDF9ECF8EFFBEEFA22C0F0C082E88AF014
:107A6000A4C0E0C0F0E88BF0A4D00028F8E435F022
:107A7000F582EA89F0A428F8E58235F0F582E4344D
:107A800000C0E0EB89F0A42582FAD0E035F0FBA934
:107A900000D000D082D0F022303130300D0041547F
:107AA00045300D0041544C300D00415448300D001C
:107AB0004154535430310D004154535041360D0060
:107AC000000102204F4244494920582D4D657465FC
:107AD000722076310D0304052007617A0661332098
:107AE0005A6F6F6D2D5A6F6F6D0D4279204A657216
:107AF00072792040546861694D617A6461330D0088
:107B000053656C656374204D454E55204974656D11
:107B1000205B7E5D0D004368616E67652053657470
:107B200074696E672020205B7E5D0D005665686974
:107B3000636C6520496E666F726D6174696F6E3A31
:107B40000D005B4E756D626572206F662044544374
:107B5000203D202D2D5D0D105761726E696E6721DD
:107B60002053657276696365205265710D0030316E
:107B700030310D005B2053657420536F756E6420A7
:107B80004F4E2F4F4646205D0D00202020202050D4
:107B90007265737320746F207365745B7E5D0D0076
:107BA000303130440D00303131300D0000001E15F1
:107BB000151515000D0000001E1111111E000D00FD
:107BC00000000106080C1B100D0000001F00000043
:107BD000110A0D000000100C02061B010D00101010
:107BE000080E030000000D0004040000111F000037
:107BF0000D000101020E180000000D0043414C2051
:107C0000456E67696E65204C6F6164202D2D2D25B2
:107C10000D10436F6F6C616E742054656D703A2067
:107C20002D2D2D20DF630D0E532D54204675656CD0
:107C3000205472696D31202D2D2D20250D0F4C2DD6
:107C400054204675656C205472696D31202D2D2DA0
:107C500020250D0F4675656C205072657373757223
:107C600065202D2D2D6B50610D0E4D414E2041692B
:107C700072205072657373202D2D2D6B50610D0E87
:107C8000454E472053706565643A202D2D2D2D20DB
:107C900052504D200D0B5645482053706565643A8F
:107CA000202D2D2D206B6D2F68200D0B49474E2068
:107CB0004144562054696D696E673A202D2D2DDFA1
:107CC0000D10496E74616B65204169722054656DB9
:107CD00070202D2DDF630D0F41697220466C6F7788
:107CE000202D2D2D2E2D20672F7365630D095468CF
:107CF000726F74746C6520506F733A202D2D2D2097
:107D00002520200D0E436F6D6D616E646564204506
:107D100047523A202D2D2D20250D0F454752204545
:107D200072726F723A202D2D2D2025202020200DDB
:107D30000B434D4420457661702050757267652075
:107D40002D2D2D20250D0F4675656C204C65766513
:107D50006C3A202D2D2D20252020200D0C42617203
:107D60006F205072657373757265202D2D2D6B50C9
:107D7000610D0E43415420312054656D703A202D21
:107D80002D2D2E2D20DF630D0C4341542032205425
:107D9000656D703A202D2D2D2E2D20DF630D0C509A
:107DA000434D20566F6C746167653A202D2D2E2D42
:107DB0002D20560D0D41425320456E67696E65209A
:107DC0004C6F6164202D2D2D250D10434D44204511
:107DD000515620526174696F3A202D2E2D2D20208E
:107DE000200D0F52454C205468726F7420506F73F1
:107DF0003A202D2D2D20250D0F414D422041697235
:107E00002054656D703A202D2D2D20DF630D0E203E
:107E10002020202020202020202020202020202062
:107E20002020200D002D2D2D206B6D2F682C41461C
:107E3000202D2D2D2E2D672F730D004675656C207E
:107E4000436F6E736D70202D2D2E2D6B6D2F4C0D8D
:00000001FF
