:10000000787F760018B800FA75F0007581807587E2
:1000100080758922758DFD759852D28EC2AC750897
:1000200004750911750A017510067515797518247E
:10003000C2A0D2B0C2A37440120EFA901535120EAF
:10004000A290153F120EA2901549120EA2901553C0
:10005000120EA290155D120EA2901567120EA290BC
:10006000152B120EA2901571120EA27401120EFA27
:1000700012100D7438120EFA740C120EFA7410125B
:100080000EFA7407120EFA7480120EFA9012E6122B
:100090000ED074C0120EFA9012FB120ED07406121B
:1000A0000EFA20B26912103E7401120EFA12100DEF
:1000B0007480120EFA9014A8120EA274C0120EFAD6
:1000C0009014EA120EA2740D120EFAC296C2972074
:1000D000B3031210643097F774C0120EFA9014FF35
:1000E000120EA2780174007F083097FDA29533D2DA
:1000F000962097FDC296DFF1F912116C08B880E5E1
:1001000074C0120EFA9014BE120EA212103E20B449
:100110004320B54012103E7401120EFA12100D74F5
:1001200080120EFA9014D4120EA274C0120EFA901D
:1001300014EA120EA2740D120EFAC296C29720B3E0
:10014000031210643097F774C0120EFA9014FF1265
:100150000EA280FE120FFC120FFC120FFC120FFCFD
:10016000120FFC120FFCC2B6C2B77401120EFA12C3
:10017000100D12104F7480120EFA901310120EA26E
:10018000740D120EFA9012BE120FCF12100D9012B3
:10019000C4120FCF12100D9012CA120FCF12100DF1
:1001A0009012D0120FCF12100D9012D8120FCF1242
:1001B000100DC29874C0120EFA9017D0120EA274CD
:1001C000C0120EFA9012B8120FCF743E120F09121D
:1001D0000FEFB43403020200B40DF174C1120EFA31
:1001E0000201E6120F09120FEFB40DF7120FFC1205
:1001F0000FFC120FFC120FFC120FFC120FFC80B24E
:10020000120FEFB43EFA740C120EFA78001211B805
:100210002014268910E51085E01978011211B8899B
:100220000878021211B88909A8081211B88916A80D
:10023000091211B8891702025FE510C2E4F51074C3
:10024000C0120EFA901828120EA212103E120FFCC5
:10025000120FFC120FFC120FFC120FFC120FFC12FB
:100260000C9C120D9F740D120FE7E51930E0092068
:10027000A704C2A38002D2A320B308121064740D95
:10028000120FE730B25520985420B42612104F05B3
:1002900008E50812093FF508A8081211B8891612D6
:1002A0000C9C12100D12100D12100D740D120FE790
:1002B00080B820B5B512104F0509E50912093FF5C0
:1002C00009A8091211B88917120D9F12100D1210EA
:1002D0000D12100D740D120FE7808F6177120FDA77
:1002E000E50AB40148120F18AA0812096F12107318
:1002F0007480250B120EFAA90F7820E6120F090858
:10030000D9F9750A027430120FE77431120FE7E55C
:1003100009C4540FF9120FBF120FE7E509540FF982
:10032000120FBF120FE7740D120FE74189120F1859
:10033000AA0912096F1210AF74C0250C120EFAA987
:100340000F7820E6120F0908D9F9750A01743012E6
:100350000FE77431120FE7E508C4540FF9120FBF0D
:10036000120FE7E508540FF9120FBF120FE7740DD3
:10037000120FE74189E1E9C2B6C2B712103E7C0A0A
:100380007D647F037E9820B2ECDEFBDFF7DDF3DCDB
:10039000EF7480120EFA901326120EA274C0120E81
:1003A000FA9013EA120EA220B30312106420B502D1
:1003B000C12E20B4F212104F7401120EFA12100D59
:1003C0007480120EFA90133C120EA274C0120EFA30
:1003D000901492120EA274C0120EFAE51030E014BE
:1003E000744F120F09744E120F097420120F09C2B4
:1003F000A3020405744F120F097446120F097446C4
:10040000120F09D2A3120FFC20B30312106430B4F0
:100410001020B5F412104FE510B2E0F510F5198078
:10042000B512104F7401120EFA12100D7480120ED4
:10043000FA901352120EA274C0120EFA9014921275
:100440000EA274C0120EFAE51030E112744F120FB2
:1004500009744E120F097420120F0902046D744FB3
:10046000120F097446120F097446120F09120FFC7D
:1004700020B30312106430B40E20B5F412104FE50F
:1004800010B2E1F51080BB12104F7401120EFA1277
:10049000100D74C0120EFA901367120EA2120C9C6B
:1004A000120FFC20B30312106430B41120B5F41203
:1004B000104F0508E50812093FF50880E07801A90A
:1004C0000812116C12104F7401120EFA12100D74F2
:1004D00080120EFA90137D120EA2120D9F120FFCC5
:1004E00020B30312106430B41120B5F412104F057C
:1004F00009E50912093FF50980E07802A9091211FE
:100500006C12104F7401120EFA12100D7480120E3C
:10051000FA901393120EA274C0120EFA9014921253
:100520000EA274C0120EFAE51030E312744F120FCF
:1005300009744E120F097420120F0902054D744FF1
:10054000120F097446120F097446120F09120FFC9C
:1005500020B30312106430B40E20B5F412104FE52E
:1005600010B2E3F51080BB12104F7401120EFA1294
:10057000100D7480120EFA9013A9120EA274C012FC
:100580000EFA901492120EA274C0120EFAE51030F8
:10059000E412744F120F09744E120F097420120FD7
:1005A000090205B3744F120F097446120F097446FD
:1005B000120F09120FFC20B30312106430B40E2086
:1005C000B5F412104FE510B2E4F51080BB12104FD5
:1005D0007401120EFA12100D7480120EFA9013BEEE
:1005E000120EA274C0120EFA9013D4120EA2120FA1
:1005F000FC20B30312106420B4F712104F120FFC4A
:10060000A910780012116C201402415F74C0120E00
:10061000FA90183E120EA212103E120FFC120FFC9E
:10062000120FFC120FFC120FFC120FFC415F121094
:100630004F7401120EFA12100D7480120EFA9014FB
:1006400000120EA2120FFC20B30312106420B4F7A4
:1006500012104F7401120EFA12100D7480120EFA5D
:10066000901416120EA2C29890146E120FCF120F91
:10067000DA120F18E50D60049480F50D90000085E6
:100680000D8212101E7491120EFAEBC4540F243016
:10069000120F09EB540F2430120F0974C0120EFA16
:1006A000E50D701A90142C120EA2120FFC20B30349
:1006B00012106420B4F712104F120FFC415FD2B633
:1006C000901442120EA212103E120FFC20B303121D
:1006D000106420B5F712104F74C0120EFA901478FF
:1006E000120EA2901474120FCF120FDAF6781908B6
:1006F000B634FC08B633F8E82404F875130074C067
:10070000120EFA08B63E0302078608B63E03020739
:100710008618B6200280ECB60D0280E7B63A028059
:10072000E208B63A0280DC18B6300808B630030298
:100730000786188811900000051385138212101E79
:10074000EB54F0C4120FBF120F09EB540F120FBF7E
:10075000120F09742D120F09A811121238E9120F85
:1007600009EA120F0908E6120F090808E6120F0934
:1007700008E6120F09120FFC20B30312106420B513
:10078000F712104FC1FE74C0120EFA901458120ED8
:10079000A275130074CF120EFAE51330E0127459EB
:1007A000120F097445120F097453120F090207BF83
:1007B000744E120F09744F120F097420120F091290
:1007C0000FFC20B30312106430B40E20B5F41210E5
:1007D0004FE513B2E0F51380BBE51330E00690144B
:1007E0008E120FCF120FFC415F7401120EFA12101D
:1007F0000D7480120EFA9017E6120EA274C0120E3B
:10080000FAE51020E2099017FC120EA202081590DA
:100810001812120EA2901515120FCF120FDA120F26
:1008200018850D11120A9D7480120EFAA90F7820F6
:10083000E6120F0908D9F990151B120FCF120FDA23
:10084000120F18850D12850E13120B8B748B120E5E
:10085000FAA90F7820E6120F0908D9F9A912A813EE
:100860007B007A0A1210EB891288137900A8117B99
:10087000017A13121121AB12AA131210EB8983888B
:1008800082E51030E24F0515A815A68308A68288D8
:1008900015E515B4FF6C788079818683878278822C
:1008A000E6FB08E6FAA983A8827511831211608914
:1008B0008388820511A811E6FB08E6FA8811A9834E
:1008C000A882E511B4FFE57B007A401210EB898322
:1008D000888275157F12101E74CC120EFAEA540F1E
:1008E000600524300208E97417120F09EBC4540F95
:1008F0002430120F09742E120F09EB540F243012FA
:100900000F0920B30312106420B40C12104FE5102D
:10091000C2E2F5100207E920B50C12104FE510D223
:10092000E2F5100207E920B21312104F7800A91067
:1009300012116C120FFC120FFC02025F020815B4B8
:100940000803740A22B41203741422B41603742325
:1009500022B42403742C22B43003743322B434033D
:10096000743C22B43E03744222B44702740422BA97
:100970000404120A2C22BA0504120A6E22BA0604D2
:10098000120AD522BA0704120AD522BA0A04120A98
:100990009D22BA0B04120A9D22BA0C04120B1322D8
:1009A000BA0D04120A9D22BA0E04120B5522BA0F78
:1009B00004120A6E22BA1004120B8B22BA1104120E
:1009C0000A2C22BA1404120C6822BA1504120C68FC
:1009D00022BA2304120B8B22BA2C04120A2C22BA3C
:1009E0002D04120A2C22BA2E04120A2C22BA2F0429
:1009F000120A2C22BA3304120A9D22BA3C04120BAA
:100A0000CC22BA3D04120BCC22BA4204120C0222B0
:100A1000BA4304120A2C22BA4404120C3622BA45F4
:100A200004120A2C22BA4603120A6E22E50D75F052
:100A300064A4900000F58212101EEA90000085F078
:100A40008225F0900000F58212101EEA540FFC601F
:100A5000072430F520020A5B752017EBC4540F24DD
:100A600030F521EB540F2430F522750F032290004E
:100A700000E50DC39428F58212101EEA540F60079A
:100A80002430F520020A8A752017EBC4540F243055
:100A9000F521EB540F2430F522750F03229000004E
:100AA000850D8212101EEA540F60072430F52002D3
:100AB0000AB5752017EBC4540FAF20BF17026007AB
:100AC0002430F521020ACA752117EB540F2430F5A2
:100AD00022750F0322E50D75F064A4A9F0F87B00E0
:100AE0007A801210EBC3E89464400775202B020A49
:100AF000F875202DFC74649C900000F58212101E85
:100B0000EBC4540F2430F521EB540F2430F522753B
:100B10000F0322E50D75F00484F5837440A4FCE511
:100B20000E75F004842CF58212101EEAC4540F6076
:100B3000072430F520020B3B752017EA540F2430B0
:100B4000F521EBC4540F2430F522EB540F2430F57B
:100B500023750F0422E50D75F00284C3944040070D
:100B600075202B020B6F75202DFC74FF9C240290C6
:100B70000000F582FC12101EEBC4540F2430F52146
:100B8000EB540F2430F522750F0322850D83850E5B
:100B90008212101EE960072430F520020BA1752097
:100BA00017EAC4540FAF20BF170260072430F521A5
:100BB000020BB6752117EA540F2430F522EBC4540A
:100BC0000F2430F52475232E750F0522850D83859E
:100BD0000E8212101EEAC4540F60072430F5200262
:100BE0000BE5752017EA540F2430F521EBC4540FA0
:100BF0002430F522EB540F2430F52475232E750F85
:100C00000522850D83850E8212101EE960072430AF
:100C1000F520020C18752017EAC4540F2430F52172
:100C2000EA540F2430F523EBC4540F2430F5247517
:100C3000222E750F0522E50D75F064A4A9F0F87B4E
:100C4000007A801210EB8983888212101EEA243009
:100C5000F52075212EEBC4540F2430F522EB540FF0
:100C60002430F523750F0422E50D75F064A4A9F076
:100C7000F87B007AC81210EB8983888212101EEA72
:100C8000540F2430F52075212EEBC4540F2430F579
:100C900022EB540F2430F523750F04227480120EBA
:100CA000FAE508B4040690157B020D99B405069088
:100CB0001591020D99B406069015A7020D99B40777
:100CC000069015BD020D99B40A069015D3020D9930
:100CD000B40B069015E9020D99B40C069015FF02AD
:100CE0000D99B40D06901615020D99B40E069016C6
:100CF0002B020D99B40F06901641020D99B41006FF
:100D0000901657020D99B4110690166D020D99B404
:100D10001406901684020D99B4150690169A020DC9
:100D200099B423069016B0020D99B42C069016C6FD
:100D3000020D99B42D069016DC020D99B42E069082
:100D400016F2020D99B42F06901708020D99B433CC
:100D50000690171E020D99B43C06901734020D99A7
:100D6000B43D0690174A020D99B4420690176002EE
:100D70000D99B44306901776020D99B44406901766
:100D80008C020D99B445069017A4020D99B446063D
:100D90009017BA020D999017D0120EA2890B2274E7
:100DA000C0120EFAE509B4040690157B020E9CB43D
:100DB0000506901591020E9CB406069015A7020E2A
:100DC0009CB407069015BD020E9CB40A069015D37C
:100DD000020E9CB40B069015E9020E9CB40C069012
:100DE00015FF020E9CB40D06901615020E9CB40E53
:100DF0000690162B020E9CB40F06901641020E9C14
:100E0000B41006901657020E9CB4110690166D028F
:100E10000E9CB41406901684020E9CB4150690160F
:100E20009A020E9CB423069016B0020E9CB42C06B7
:100E30009016C6020E9CB42D069016DC020E9CB4D1
:100E40002E069016F2020E9CB42F06901708020E82
:100E50009CB4330690171E020E9CB43C06901734C7
:100E6000020E9CB43D0690174A020E9CB4420690B6
:100E70001760020E9CB44306901776020E9CB44491
:100E80000690178C020E9CB445069017A4020E9C87
:100E9000B446069017BA020E9C9017D0120EA28983
:100EA0000C227820E493F6B40D03020EB1A308805F
:100EB000F308760DA3E493F97820E6B40D0122D26D
:100EC000A200D2A100F58000C2A2120FF70880EAAA
:100ED0007820E493F6B40D03020EDFA30880F30834
:100EE000760D7820E6B40D0122D2A200D2A100F541
:100EF0008000C2A212100D0880EAD2A200C2A10096
:100F0000F58000C2A212100D22D2A200D2A100F5DB
:100F10008000C2A2120FF722E520B43426751824EF
:100F20007826E6120FB0C4F50D08E6120FB0790D61
:100F3000D77829E6120FB0C4F50E08E6120FB07983
:100F40000ED722D51843E51030E43E12103E74014E
:100F5000D1FA12100D7480D1FA901854D1A274C035
:100F6000D1FA90186AD1A2120FFC12104F120FFC86
:100F700012104F120FFC12104F120FFC7408D1FA0E
:100F8000C2B6C2B7D2A3020F90750D00750E002233
:100F90009012B8120FCF120FEFB434099012E01272
:100FA0000FCF12123175110A120FFCD511FA80E021
:100FB00075F04184B40104E6943722E6942F22FFB1
:100FC00075F00A84B40104EF243722EF243022E4C0
:100FD00093700122A3120FE780F57820120FEFB46F
:100FE0003E0122F60880F53099FDC299F59922302C
:100FF00098FDC298E599227E1FDEFE227C0A7D6460
:101000007F037E98DEFEDFFADDF6DCF2227C027DD5
:10101000327F037E98DEFEDFFADDF6DCF22274001A
:10102000F9FAFB7C10E58233F582E58333F5837DA5
:10103000037803E635E0D4F618DDF8DCE822C2A434
:101040007B077CFF7DFFDDFEDCFADBF6D2A422E528
:101050001020E103110D22C2A47B307CFFDCFEDBFB
:10106000FAD2A42220A306D2A3120FFC22C2A312FA
:101070000FFC22E51030E32CE50D8516F084FFE52A
:1010800008B40A030210A7B414030210A7B415038E
:101090000210A7B42F030210A7B442030210A7EF57
:1010A0006002D2B6C2B722EF70FAD2B6C2B722E55A
:1010B0001030E32CE50D8517F084FFE509B40A0331
:1010C0000210E3B414030210E3B415030210E3B4F6
:1010D0002F030210E3B442030210E3EF6002D2B721
:1010E000C2B622EF70FAD2B7C2B6227F007E007578
:1010F000F010C3E833F8E933F9EE33FEEF33FFEED7
:10110000C39AF582EF9BF583B35004AF83AE82ECB4
:1011100033FCED33FDD5F0DAEDF9ECF8EFFBEEFA48
:1011200022C0F0C082E88AF0A4C0E0C0F0E88BF0F2
:10113000A4D00028F8E435F0F582EA89F0A428F874
:10114000E58235F0F582E43400C0E0EB89F0A425B7
:1011500082FAD0E035F0FBA900D000D082D0F02296
:1011600053D0E7E82AF8E93BF9A2D22212122BD297
:10117000A5D2A6C2A512122BC2A6D2A574A0121186
:101180009B20140DE8547F12119B201404E91211C6
:101190009BC2A5D2A612122BD2A522C2147A083362
:1011A00092A512121B121223DAF5D2A512121B30CD
:1011B000A502D21412122322D2A5D2A6C2A51212BF
:1011C0002BC2A674A0319B20142AE8547F319B20A7
:1011D0001422C2A5D2A612122BD2A5D2A5D2A6C283
:1011E000A512122BC2A674A1319B2014071211FE66
:1011F000201401F9C2A5D2A612122BD2A522C21424
:101200007A0812121BA2A533121223DAF5D2A51204
:10121000121B20A502D21412122322D2A600000013
:10122000000022C2A6000000000022000000000012
:101230002275A61E75A6E122B6300579507A3022B5
:10124000B6310579507A3122B6320579507A322298
:10125000B6330579507A3322B6340579437A302291
:10126000B6350579437A3122B6360579437A32228A
:10127000B6370579437A3322B6380579427A302277
:10128000B6390579427A3122B6410579427A32225D
:10129000B6420579427A3322B6430579557A30222F
:1012A000B6440579557A3122B6450579557A322208
:1012B000B6460579557A3322303130300D0041542D
:1012C00045300D0041544C300D00415448300D0064
:1012D0004154535430300D004154535041360D00A9
:1012E000415457530D00000102204F424449492008
:1012F000072D4D455445522056310D030405202D30
:101300002D2D2D2D2D2D2D2D2D2D2D2D2D2D2D0D2D
:101310004279204A657272792040546861694D6152
:101320007A6461060D0053656C65637420534554FF
:101330005550204D656E755B7E5D0D00312E204150
:1013400075746F204261636B6C696768742020203C
:101350000D00322E2053657420535045414B4552A9
:1013600020202020200D00332E205365742073741C
:101370006172742D757020504944310D00342E2057
:101380005365742073746172742D757020504944D4
:10139000320D00352E20504944205761726E696E1F
:1013A00067204C696768740D00362E204175746F94
:1013B00020536C656570204D6F64652E0D00372ECF
:1013C000204669726D776172652056657220312EF4
:1013D00030350D004A616E30352C323031337C4A65
:1013E0006176614A61636F620D0053706563696184
:1013F0006C2046756E6374696F6E205B7E5D0D00B8
:10140000312E2056656820496E666F204E756D62DC
:101410006572733A0D00322E204E6F2E206F6620BB
:1014200044544373203D202D2D200D104D494C2058
:10143000737461747573206973204F46462E2E2E87
:101440000D00507265737320746F207265616420A3
:101450004454435B7E5D0D00436C656172204D49D1
:101460004C206E6F773F5B4E4F205D7E0D0030311C
:1014700030310D0030330D0020202020202020208E
:10148000206E657874204454435B7E5D0D003034DB
:101490000D002020202020507265737320746F206F
:1014A0007365745B7E5D0D005B534554204C494D64
:1014B00049545445442056414C55455D0D005365F3
:1014C0007474696E6720636F6D706C657465212E2E
:1014D0002E2E0D005B205550475241444520464971
:1014E000524D57415245205D0D0057616974696E38
:1014F0006720636F6E6E656374696F6E2E0D004EAC
:101500006F7720557067726164696E672E2E2E208A
:101510002020200D00303130440D00303131300DAD
:101520000000001E15151515000D00000E010E011E
:10153000031E000D0000000106080C1B100D00002A
:10154000001F000000110A0D000000100C02061B15
:10155000010D001010080E030000000D000404002F
:1015600000111F00000D000101020E180000000D07
:1015700000111B0E04040E1B110D0043414C2045AD
:101580006E67696E65204C6F6164202D2D2D250DD1
:1015900010436F6F6C616E742054656D703A202D2E
:1015A0002D2D20DF630D0E532D54204675656C20C4
:1015B0005472696D31202D2D2D20250D0F4C2D5489
:1015C000204675656C205472696D31202D2D2D20BB
:1015D000250D0F4675656C205072657373757265C5
:1015E000202D2D2D6B50610D0E4D414E2041697205
:1015F000205072657373202D2D2D6B50610D0E459B
:101600004E472053706565643A202D2D2D2D2052B4
:10161000504D200D0B5645482053706565643A20A7
:101620002D2D2D206B6D2F68200D0B49474E20412D
:1016300044562054696D696E673A202D2D2DDF0DBB
:1016400010496E74616B65204169722054656D703C
:10165000202D2DDF630D0F41697220466C6F7720BE
:101660002D2D2D2E2D20672F7365630D0954687263
:101670006F74746C6520506F733A202D2D2D2025CA
:1016800020200D0E46726F6E7420484F3253205644
:101690006F6C74202D2E2D2D0D105265617220203F
:1016A000484F325320566F6C74202D2E2D2D0D1067
:1016B0005261696C205072657373202D2D2D2E2D73
:1016C000204D50610D0B436F6D6D616E646564203C
:1016D0004547523A202D2D2D20250D0F45475220EC
:1016E0004572726F723A202D2D2D2025202020204A
:1016F0000D0B434D4420457661702050757267652F
:10170000202D2D2D20250D0F4675656C204C6576FE
:10171000656C3A202D2D2D20252020200D0C4261B6
:10172000726F205072657373757265202D2D2D6B4D
:1017300050610D0E43415420312054656D703A20A4
:101740002D2D2D2E2D20DF630D0C434154203220F2
:1017500054656D703A202D2D2D2E2D20DF630D0C3C
:1017600050434D20566F6C746167653A202D2D2EC5
:101770002D2D20560D0D41425320456E67696E6533
:10178000204C6F6164202D2D2D250D10434D4420DC
:1017900045515620526174696F3A202D2E2D2D200F
:1017A00020200D0F52454C205468726F7420506FEA
:1017B000733A202D2D2D20250D0F414D42204169DA
:1017C000722054656D703A202D2D2D20DF630D0E93
:1017D0002020202020202020202020202020202009
:1017E000202020200D002D2D2D206B6D2F687C4199
:1017F00046202D2D2E2D20672F730D0043757272FC
:10180000656E7420462F43202D2D2E2D6B6D2F4C91
:101810000D004176657261676520462F43202D2DAE
:101820002E2D6B6D2F4C0D00454550524F4D2052C3
:10183000656164696E67204572726F720D0045457F
:1018400050524F4D2057726974696E67204572720D
:101850006F720D00456E67696E652069732074753F
:10186000726E6564206F66660D00537769746368F5
:1018700020746F20534C454550206D6F64650D00FA
:00000001FF
