
:1000000075F000758140758780758920758DFD7547
:100010009852D28EC2AC750804750904751001752A
:100020001601744012082F900A4E1207D1900A58F8
:100030001207D1900A621207D1900A6C1207D19070
:100040000A761207D1900A801207D1900A4412074B
:10005000D1900A3A1207D1120821740112082F1206
:1000600008CA743812082F740C12082F7410120862
:100070002F740712082F748012082F90096412073A
:10008000FB74C012082F9009791207FB740612083E
:100090002F1208B91208B91208B91208B97401125E
:1000A000082F1208CA120915748012082F90098EA1
:1000B0001207D1740D12082F90094212088C1208F1
:1000C000CA90094812088C1208CA90094E12088C6E
:1000D0001208CA90095412088C1208CA90095C12BE
:1000E000088C74C012082F90093C12088C743E12C0
:1000F00008371208ACB40DF774C012082F900C71B9
:100100001207D174C012082F743E1208371208ACBF
:10011000B43403020127B40DF11208B91208B91260
:1001200008B91208B980BB1208ACB43EFA740C12BC
:10013000082F7508057509051206251206FB740DB2
:100140001208A420984420B21F1208CA1208CA300C
:10015000B3351209150508E508120395F5081206CE
:1001600025740D1208A480DB20B3D81208CA120827
:10017000CA1209150509E509120395F5091206FBCE
:10018000740D1208A480BC02021F120897E510B477
:10019000014512083FAA081203BA748025111208FB
:1001A0002FA9157820E612083708D9F975100274BE
:1001B000301208A474311208A4E509C4540FF912CE
:1001C000087D1208A4E509540FF912087D1208A44D
:1001D000740D1208A4214312083FAA091203BA742D
:1001E000C0251212082FA9157820E612083708D961
:1001F000F975100174301208A474311208A4E508CE
:10020000C4540FF912087D1208A4E508540FF9121E
:10021000087D1208A4740D1208A4214302032812B9
:1002200008F67C0A7D647F037E9820B2EFDEFBDF58
:10023000F7DDF3DCEF748012082F9009A41207D1C8
:1002400074C012082F9009BA1207D11208B9120807
:10025000B920B2FD1208CA1208CA12091574011297
:10026000082F1208CA748012082F9009D01207D1E3
:1002700020B2FD1208CA1208CA1209157401120828
:100280002F1208CA748012082F9009E61207D19025
:1002900009FC12088C12089712083F900000851381
:1002A000821208D7749112082FEBC4540F24301215
:1002B0000837EB540F243012083720B2FD1208CA59
:1002C0001208CA120915740112082F1208CA748084
:1002D00012082F900A021207D174A812082F900A50
:1002E000181207D174A812082FE51630E012744FC7
:1002F000120837744E120837742012083702030FA1
:10030000744F120837744612083774461208373093
:10031000B20E20B3FA1208B9E516B2E0F51680C4A1
:100320001208B91208B92138740112082F1208CA2C
:10033000748012082F900C871207D174C012082FF6
:10034000900C9D1207D1900A2E12088C1208971259
:10035000083F1204C6748012082FA9157820E612EF
:10036000083708D9F9900A3412088C120897120835
:100370003F120569748C12082FA9157820E612081F
:100380003708D9F920B2BF20B3BC1209151208B939
:100390001208B92138B40603740A22B41203742C6B
:1003A00022B43003743322B43403743C22B43E03C9
:1003B000744222B4470374042222BA04041204557E
:1003C00022BA050412049722BA0A041204C622BAF9
:1003D0000B041204C622BA0C041204F122BA0D0452
:1003E0001204C622BA0E0412053322BA0F041204F4
:1003F0009722BA100412056922BA11041204552278
:10040000BA2C0412045522BA2D0412045522BA2E15
:100410000412045522BA2F0412045522BA330412CE
:1004200004C622BA3C0412059D22BA3D0412059D61
:1004300022BA42041205D322BA430412045522BA46
:10044000440412060722BA450412045522BA46048F
:100450001204972222E51375F064A4900000F5823F
:100460001208D7EA90000085F08225F0900000F590
:10047000821208D7EA540FFC60072430F5200204EA
:1004800084752017EBC4540F2430F521EB540F244E
:1004900030F52275150322900000E513C39428F56A
:1004A000821208D7EA540F60072430F5200204B303
:1004B000752017EBC4540F2430F521EB540F243072
:1004C000F522751503229000008513821208D7EAE1
:1004D000540F60072430F5200204DE752017EBC4AA
:1004E000540F2430F521EB540F2430F522751503F9
:1004F00022E51375F00484F5837440A4FCE51475BB
:10050000F004842CF5821208D7EAC4540F60072443
:1005100030F520020519752017EA540F2430F52113
:10052000EBC4540F2430F522EB540F2430F523751F
:10053000150422E51375F00284C39440400775202A
:100540002B02054D75202DFC74FF9C2402900000A9
:10055000F582FC1208D7EBC4540F2430F521EB547C
:100560000F2430F52275150322851383851482121A
:1005700008D7E960072430F52002057F752017EAC7
:10058000C4540F2430F521EA540F2430F522EBC473
:10059000540F2430F52475232E75150522851383F9
:1005A0008514821208D7EAC4540F60072430F5205E
:1005B0000205B6752017EA540F2430F521EBC45418
:1005C0000F2430F522EB540F2430F52475232E75BB
:1005D0001505228513838514821208D7E960072444
:1005E00030F5200205E9752017EAC4540F2430F5D0
:1005F00021EA540F2430F523EBC4540F2430F524A2
:1006000075222E75150522E51375F080842430F5CA
:100610002075212EE5F075F00C842430F522752329
:100620003075150422748012082FE508B404069072
:100630000A8A0206F5B40506900AA00206F5B40A75
:1006400006900AB60206F5B40B06900ACC0206F52F
:10065000B40C06900AE20206F5B40D06900AF80200
:1006600006F5B40E06900B0E0206F5B40F06900BBD
:10067000240206F5B41006900B3A0206F5B41106F2
:10068000900B500206F5B42C06900B670207CBB412
:100690002D06900B7D0207CBB42E06900B9302071C
:1006A000CBB42F06900BA90206F5B43306900BBF0E
:1006B0000206F5B43C06900BD50206F5B43D069053
:1006C0000BEB0207CBB44206900C010206F5B443D3
:1006D00006900C170206F5B44406900C2D0206F5A0
:1006E000B44506900C450206F5B44606900C5B0234
:1006F00006F5900C711207D189112274C012082FCF
:10070000E509B40406900A8A0207CBB40506900AEC
:10071000A00207CBB40A06900AB60207CBB40B06B8
:10072000900ACC0207CBB40C06900AE20207CBB4C5
:100730000D06900AF80207CBB40E06900B0E0207C6
:10074000CBB40F06900B240207CBB41006900B3AE3
:100750000207CBB41106900B500207CBB42C0690C5
:100760000B670207CBB42D06900B7D0207CBB42E8E
:1007700006900B930207CBB42F06900BA90207CB70
:10078000B43306900BBF0207CBB43C06900BD502E6
:1007900007CBB43D06900BEB0207CBB44206900C9E
:1007A000010207CBB44306900C170207CBB44406F2
:1007B000900C2D0207CBB44506900C450207CBB434
:1007C0004606900C5B0207CB900C711207D1891280
:1007D000227820E493F6B40D030207E0A30880F327
:1007E00008760DA3E493F97820908002E6B40D0317
:1007F0000207FAF0081208B480F2227820E493F697
:10080000B40D0302080AA30880F308760D7820903F
:100810008002E6B40D03020820F0081208CA80F234
:1008200022C2E490F000F022D2E490F000F0229096
:100830008000F01208B422908002F01208B422E581
:1008400020B434237826E612086EC4F51308E612A5
:10085000086E7913D77829E612086EC4F51408E6F5
:1008600012086E7914D7227513007514002275F0E2
:100870004184B40104E6943722E6942F2275F00AED
:1008800084B40104E9243722E9243022E49370017E
:1008900022A31208A480F578201208ACB43E0122ED
:1008A000F60880F53099FDC299F599223098FDC27D
:1008B00098E599227E0FDEFE227C057D647F037E13
:1008C00098DEFEDFFADDF6DCF2227D327F037E98D1
:1008D000DEFEDFFADDF622E4F9FAFB7C10E5823376
:1008E000F582E58333F5837D037803E635E0D4F6BE
:1008F00018DDF8DCE822790F7A8FC2E690F000F07C
:10090000310ED2E690F000F0310EDAEED9EA75F051
:100910006FD5F0FD22E51620E00311CA2275F030F4
:10092000C2E690F000F0120936D2E690F000F01224
:100930000936D5F0EB2274601470FD22303130306E
:100940000D00415445300D0041544C300D004154D0
:1009500048300D004154535430310D004154535030
:1009600041360D00000102204F4244494920582DD4
:100970004D657465722076310D0304052007617A98
:10098000066133205A6F6F6D2D5A6F6F6D0D42796E
:10099000204A657272792040546861694D617A64B9
:1009A00061330D0053656C656374204D454E5520D1
:1009B0004974656D205B7E5D0D004368616E6765FF
:1009C0002053657474696E672020205B7E5D0D0086
:1009D0005B56656869636C652053657269616C205C
:1009E0004E6F2E5D0D005B4E756D626572206F66F9
:1009F00020445443733D202D2D5D0D103031303295
:100A00000D005B2053657420536F756E64204F4E4C
:100A10002F4F4646205D0D0020202020205072657B
:100A2000737320746F207365745B7E5D0D003031CD
:100A300030440D00303131300D0000001E15151509
:100A400015000D0000001E1111111E000D00000008
:100A50000106080C1B100D0000001F000000110A09
:100A60000D000000100C02061B010D001010080EF6
:100A7000030000000D0004040000111F00000D0021
:100A80000101020E180000000D0043414C20456E8C
:100A900067696E65204C6F6164202D2D2D250D102A
:100AA000436F6F6C616E742054656D703A202D2D0C
:100AB0002D20DF630D0E4675656C205072657373D3
:100AC000757265202D2D2D6B50610D0E4D414E2000
:100AD000416972205072657373202D2D2D6B50610A
:100AE0000D0E454E472053706565643A202D2D2D1F
:100AF0002D2052504D200D0B5645482053706565F2
:100B0000643A202D2D2D206B6D2F68200D0B494749
:100B10004E204144562054696D696E673A202D2D50
:100B20002DDF0D10496E74616B6520416972205490
:100B3000656D70202D2DDF630D0F41697220466CAD
:100B40006F77202D2D2D2E2D20672F7365630D09B6
:100B50005468726F74746C6520506F733A202D2D39
:100B60002D202520200D0E436F6D6D616E64656430
:100B7000204547523A202D2D2D20250D0F45475257
:100B8000204572726F723A202D2D2D2025202020B5
:100B9000200D0B436D64204576617020507572679F
:100BA00065202D2D2D20250D0F4675656C204C657B
:100BB00076656C3A202D2D2D20252020200D0C420D
:100BC00061726F205072657373757265202D2D2DC3
:100BD0006B50610D0E43415420312054656D703AC5
:100BE000202D2D2D2E2D20DF630D0C43415420325E
:100BF0002054656D703A202D2D2D2E2D20DF630D94
:100C00000C45435520566F6C746167653A202D2D55
:100C10002E2D2D20560D0D41425320456E67696ED5
:100C200065204C6F6164202D2D2D250D10434D4402
:100C30002045515620526174696F3A202D2E2D2D7A
:100C40002020200D0F52454C205468726F742050A4
:100C50006F733A202D2D2D20250D0F414D4220413F
:100C600069722054656D703A202D2D2D20DF630DA3
:100C70000E20202020202020202020202020202086
:100C800020202020200D002D2D2D206B6D2F682C75
:100C90004146202D2D2D2E2D672F730D0046756595
:100CA0006C20436F6E736D70202D2D2E2D6B6D2F6C
:020CB0004C0DE9
:00000001FF
